{
  "_format": "hh-sol-artifact-1",
  "contractName": "MyNFT",
  "sourceName": "contracts/MyNFT.sol",
  "abi": [
    {
      "inputs": [
        {
          "internalType": "address",
          "name": "initialOwner",
          "type": "address"
        }
      ],
      "stateMutability": "nonpayable",
      "type": "constructor"
    },
    {
      "inputs": [
        {
          "internalType": "address",
          "name": "sender",
          "type": "address"
        },
        {
          "internalType": "uint256",
          "name": "tokenId",
          "type": "uint256"
        },
        {
          "internalType": "address",
          "name": "owner",
          "type": "address"
        }
      ],
      "name": "ERC721IncorrectOwner",
      "type": "error"
    },
    {
      "inputs": [
        {
          "internalType": "address",
          "name": "operator",
          "type": "address"
        },
        {
          "internalType": "uint256",
          "name": "tokenId",
          "type": "uint256"
        }
      ],
      "name": "ERC721InsufficientApproval",
      "type": "error"
    },
    {
      "inputs": [
        {
          "internalType": "address",
          "name": "approver",
          "type": "address"
        }
      ],
      "name": "ERC721InvalidApprover",
      "type": "error"
    },
    {
      "inputs": [
        {
          "internalType": "address",
          "name": "operator",
          "type": "address"
        }
      ],
      "name": "ERC721InvalidOperator",
      "type": "error"
    },
    {
      "inputs": [
        {
          "internalType": "address",
          "name": "owner",
          "type": "address"
        }
      ],
      "name": "ERC721InvalidOwner",
      "type": "error"
    },
    {
      "inputs": [
        {
          "internalType": "address",
          "name": "receiver",
          "type": "address"
        }
      ],
      "name": "ERC721InvalidReceiver",
      "type": "error"
    },
    {
      "inputs": [
        {
          "internalType": "address",
          "name": "sender",
          "type": "address"
        }
      ],
      "name": "ERC721InvalidSender",
      "type": "error"
    },
    {
      "inputs": [
        {
          "internalType": "uint256",
          "name": "tokenId",
          "type": "uint256"
        }
      ],
      "name": "ERC721NonexistentToken",
      "type": "error"
    },
    {
      "inputs": [
        {
          "internalType": "address",
          "name": "owner",
          "type": "address"
        }
      ],
      "name": "OwnableInvalidOwner",
      "type": "error"
    },
    {
      "inputs": [
        {
          "internalType": "address",
          "name": "account",
          "type": "address"
        }
      ],
      "name": "OwnableUnauthorizedAccount",
      "type": "error"
    },
    {
      "anonymous": false,
      "inputs": [
        {
          "indexed": true,
          "internalType": "address",
          "name": "owner",
          "type": "address"
        },
        {
          "indexed": true,
          "internalType": "address",
          "name": "approved",
          "type": "address"
        },
        {
          "indexed": true,
          "internalType": "uint256",
          "name": "tokenId",
          "type": "uint256"
        }
      ],
      "name": "Approval",
      "type": "event"
    },
    {
      "anonymous": false,
      "inputs": [
        {
          "indexed": true,
          "internalType": "address",
          "name": "owner",
          "type": "address"
        },
        {
          "indexed": true,
          "internalType": "address",
          "name": "operator",
          "type": "address"
        },
        {
          "indexed": false,
          "internalType": "bool",
          "name": "approved",
          "type": "bool"
        }
      ],
      "name": "ApprovalForAll",
      "type": "event"
    },
    {
      "anonymous": false,
      "inputs": [
        {
          "indexed": false,
          "internalType": "uint256",
          "name": "_fromTokenId",
          "type": "uint256"
        },
        {
          "indexed": false,
          "internalType": "uint256",
          "name": "_toTokenId",
          "type": "uint256"
        }
      ],
      "name": "BatchMetadataUpdate",
      "type": "event"
    },
    {
      "anonymous": false,
      "inputs": [
        {
          "indexed": true,
          "internalType": "address",
          "name": "burner",
          "type": "address"
        },
        {
          "indexed": true,
          "internalType": "uint256",
          "name": "tokenId",
          "type": "uint256"
        }
      ],
      "name": "Burned",
      "type": "event"
    },
    {
      "anonymous": false,
      "inputs": [
        {
          "indexed": false,
          "internalType": "uint256",
          "name": "_tokenId",
          "type": "uint256"
        }
      ],
      "name": "MetadataUpdate",
      "type": "event"
    },
    {
      "anonymous": false,
      "inputs": [
        {
          "indexed": true,
          "internalType": "address",
          "name": "owner",
          "type": "address"
        },
        {
          "indexed": true,
          "internalType": "uint256",
          "name": "tokenId",
          "type": "uint256"
        },
        {
          "indexed": false,
          "internalType": "string",
          "name": "uri",
          "type": "string"
        }
      ],
      "name": "Minted",
      "type": "event"
    },
    {
      "anonymous": false,
      "inputs": [
        {
          "indexed": true,
          "internalType": "address",
          "name": "previousOwner",
          "type": "address"
        },
        {
          "indexed": true,
          "internalType": "address",
          "name": "newOwner",
          "type": "address"
        }
      ],
      "name": "OwnershipTransferred",
      "type": "event"
    },
    {
      "anonymous": false,
      "inputs": [
        {
          "indexed": true,
          "internalType": "address",
          "name": "from",
          "type": "address"
        },
        {
          "indexed": true,
          "internalType": "address",
          "name": "to",
          "type": "address"
        },
        {
          "indexed": true,
          "internalType": "uint256",
          "name": "tokenId",
          "type": "uint256"
        }
      ],
      "name": "Transfer",
      "type": "event"
    },
    {
      "anonymous": false,
      "inputs": [
        {
          "indexed": true,
          "internalType": "address",
          "name": "from",
          "type": "address"
        },
        {
          "indexed": true,
          "internalType": "address",
          "name": "to",
          "type": "address"
        },
        {
          "indexed": true,
          "internalType": "uint256",
          "name": "tokenId",
          "type": "uint256"
        }
      ],
      "name": "Transferred",
      "type": "event"
    },
    {
      "inputs": [
        {
          "internalType": "address",
          "name": "to",
          "type": "address"
        },
        {
          "internalType": "uint256",
          "name": "tokenId",
          "type": "uint256"
        }
      ],
      "name": "approve",
      "outputs": [],
      "stateMutability": "nonpayable",
      "type": "function"
    },
    {
      "inputs": [
        {
          "internalType": "address",
          "name": "owner",
          "type": "address"
        }
      ],
      "name": "balanceOf",
      "outputs": [
        {
          "internalType": "uint256",
          "name": "",
          "type": "uint256"
        }
      ],
      "stateMutability": "view",
      "type": "function"
    },
    {
      "inputs": [
        {
          "internalType": "uint256",
          "name": "_tokenId",
          "type": "uint256"
        }
      ],
      "name": "burn",
      "outputs": [],
      "stateMutability": "nonpayable",
      "type": "function"
    },
    {
      "inputs": [
        {
          "internalType": "uint256",
          "name": "tokenId",
          "type": "uint256"
        }
      ],
      "name": "getApproved",
      "outputs": [
        {
          "internalType": "address",
          "name": "",
          "type": "address"
        }
      ],
      "stateMutability": "view",
      "type": "function"
    },
    {
      "inputs": [
        {
          "internalType": "address",
          "name": "owner",
          "type": "address"
        },
        {
          "internalType": "address",
          "name": "operator",
          "type": "address"
        }
      ],
      "name": "isApprovedForAll",
      "outputs": [
        {
          "internalType": "bool",
          "name": "",
          "type": "bool"
        }
      ],
      "stateMutability": "view",
      "type": "function"
    },
    {
      "inputs": [],
      "name": "name",
      "outputs": [
        {
          "internalType": "string",
          "name": "",
          "type": "string"
        }
      ],
      "stateMutability": "view",
      "type": "function"
    },
    {
      "inputs": [],
      "name": "owner",
      "outputs": [
        {
          "internalType": "address",
          "name": "",
          "type": "address"
        }
      ],
      "stateMutability": "view",
      "type": "function"
    },
    {
      "inputs": [
        {
          "internalType": "uint256",
          "name": "tokenId",
          "type": "uint256"
        }
      ],
      "name": "ownerOf",
      "outputs": [
        {
          "internalType": "address",
          "name": "",
          "type": "address"
        }
      ],
      "stateMutability": "view",
      "type": "function"
    },
    {
      "inputs": [],
      "name": "renounceOwnership",
      "outputs": [],
      "stateMutability": "nonpayable",
      "type": "function"
    },
    {
      "inputs": [
        {
          "internalType": "address",
          "name": "to",
          "type": "address"
        },
        {
          "internalType": "uint256",
          "name": "tokenId",
          "type": "uint256"
        },
        {
          "internalType": "string",
          "name": "uri",
          "type": "string"
        }
      ],
      "name": "safeMint",
      "outputs": [],
      "stateMutability": "nonpayable",
      "type": "function"
    },
    {
      "inputs": [
        {
          "internalType": "address",
          "name": "from",
          "type": "address"
        },
        {
          "internalType": "address",
          "name": "to",
          "type": "address"
        },
        {
          "internalType": "uint256",
          "name": "tokenId",
          "type": "uint256"
        }
      ],
      "name": "safeTransferFrom",
      "outputs": [],
      "stateMutability": "nonpayable",
      "type": "function"
    },
    {
      "inputs": [
        {
          "internalType": "address",
          "name": "from",
          "type": "address"
        },
        {
          "internalType": "address",
          "name": "to",
          "type": "address"
        },
        {
          "internalType": "uint256",
          "name": "tokenId",
          "type": "uint256"
        },
        {
          "internalType": "bytes",
          "name": "data",
          "type": "bytes"
        }
      ],
      "name": "safeTransferFrom",
      "outputs": [],
      "stateMutability": "nonpayable",
      "type": "function"
    },
    {
      "inputs": [
        {
          "internalType": "address",
          "name": "operator",
          "type": "address"
        },
        {
          "internalType": "bool",
          "name": "approved",
          "type": "bool"
        }
      ],
      "name": "setApprovalForAll",
      "outputs": [],
      "stateMutability": "nonpayable",
      "type": "function"
    },
    {
      "inputs": [
        {
          "internalType": "bytes4",
          "name": "interfaceId",
          "type": "bytes4"
        }
      ],
      "name": "supportsInterface",
      "outputs": [
        {
          "internalType": "bool",
          "name": "",
          "type": "bool"
        }
      ],
      "stateMutability": "view",
      "type": "function"
    },
    {
      "inputs": [],
      "name": "symbol",
      "outputs": [
        {
          "internalType": "string",
          "name": "",
          "type": "string"
        }
      ],
      "stateMutability": "view",
      "type": "function"
    },
    {
      "inputs": [
        {
          "internalType": "uint256",
          "name": "tokenId",
          "type": "uint256"
        }
      ],
      "name": "tokenURI",
      "outputs": [
        {
          "internalType": "string",
          "name": "",
          "type": "string"
        }
      ],
      "stateMutability": "view",
      "type": "function"
    },
    {
      "inputs": [
        {
          "internalType": "address",
          "name": "from",
          "type": "address"
        },
        {
          "internalType": "address",
          "name": "to",
          "type": "address"
        },
        {
          "internalType": "uint256",
          "name": "tokenId",
          "type": "uint256"
        }
      ],
      "name": "transferFrom",
      "outputs": [],
      "stateMutability": "nonpayable",
      "type": "function"
    },
    {
      "inputs": [
        {
          "internalType": "address",
          "name": "_to",
          "type": "address"
        },
        {
          "internalType": "uint256",
          "name": "_tokenId",
          "type": "uint256"
        }
      ],
      "name": "transferNFT",
      "outputs": [],
      "stateMutability": "nonpayable",
      "type": "function"
    },
    {
      "inputs": [
        {
          "internalType": "address",
          "name": "_to",
          "type": "address"
        }
      ],
      "name": "transferOwnership",
      "outputs": [],
      "stateMutability": "nonpayable",
      "type": "function"
    }
  ],
  "bytecode": "0x60806040523480156200001157600080fd5b50604051620030f4380380620030f4833981810160405281019062000037919062000288565b806040518060400160405280600581526020017f4d794e46540000000000000000000000000000000000000000000000000000008152506040518060400160405280600381526020017f4e465400000000000000000000000000000000000000000000000000000000008152508160009081620000b5919062000534565b508060019081620000c7919062000534565b505050600073ffffffffffffffffffffffffffffffffffffffff168173ffffffffffffffffffffffffffffffffffffffff16036200013f5760006040517f1e4fbdf70000000000000000000000000000000000000000000000000000000081526004016200013691906200062c565b60405180910390fd5b62000150816200015860201b60201c565b505062000649565b6000600760009054906101000a900473ffffffffffffffffffffffffffffffffffffffff16905081600760006101000a81548173ffffffffffffffffffffffffffffffffffffffff021916908373ffffffffffffffffffffffffffffffffffffffff1602179055508173ffffffffffffffffffffffffffffffffffffffff168173ffffffffffffffffffffffffffffffffffffffff167f8be0079c531659141344cd1fd0a4f28419497f9722a3daafe3b4186f6b6457e060405160405180910390a35050565b600080fd5b600073ffffffffffffffffffffffffffffffffffffffff82169050919050565b6000620002508262000223565b9050919050565b620002628162000243565b81146200026e57600080fd5b50565b600081519050620002828162000257565b92915050565b600060208284031215620002a157620002a06200021e565b5b6000620002b18482850162000271565b91505092915050565b600081519050919050565b7f4e487b7100000000000000000000000000000000000000000000000000000000600052604160045260246000fd5b7f4e487b7100000000000000000000000000000000000000000000000000000000600052602260045260246000fd5b600060028204905060018216806200033c57607f821691505b602082108103620003525762000351620002f4565b5b50919050565b60008190508160005260206000209050919050565b60006020601f8301049050919050565b600082821b905092915050565b600060088302620003bc7fffffffffffffffffffffffffffffffffffffffffffffffffffffffffffffffff826200037d565b620003c886836200037d565b95508019841693508086168417925050509392505050565b6000819050919050565b6000819050919050565b6000620004156200040f6200040984620003e0565b620003ea565b620003e0565b9050919050565b6000819050919050565b6200043183620003f4565b6200044962000440826200041c565b8484546200038a565b825550505050565b600090565b6200046062000451565b6200046d81848462000426565b505050565b5b8181101562000495576200048960008262000456565b60018101905062000473565b5050565b601f821115620004e457620004ae8162000358565b620004b9846200036d565b81016020851015620004c9578190505b620004e1620004d8856200036d565b83018262000472565b50505b505050565b600082821c905092915050565b60006200050960001984600802620004e9565b1980831691505092915050565b6000620005248383620004f6565b9150826002028217905092915050565b6200053f82620002ba565b67ffffffffffffffff8111156200055b576200055a620002c5565b5b62000567825462000323565b6200057482828562000499565b600060209050601f831160018114620005ac576000841562000597578287015190505b620005a3858262000516565b86555062000613565b601f198416620005bc8662000358565b60005b82811015620005e657848901518255600182019150602085019450602081019050620005bf565b8683101562000606578489015162000602601f891682620004f6565b8355505b6001600288020188555050505b505050505050565b620006268162000243565b82525050565b60006020820190506200064360008301846200061b565b92915050565b612a9b80620006596000396000f3fe608060405234801561001057600080fd5b50600436106101215760003560e01c8063715018a6116100ad578063b88d4fde11610071578063b88d4fde146102f2578063c87b56dd1461030e578063cd279c7c1461033e578063e985e9c51461035a578063f2fde38b1461038a57610121565b8063715018a6146102745780638da5cb5b1461027e57806394ab67fe1461029c57806395d89b41146102b8578063a22cb465146102d657610121565b806323b872dd116100f457806323b872dd146101c057806342842e0e146101dc57806342966c68146101f85780636352211e1461021457806370a082311461024457610121565b806301ffc9a71461012657806306fdde0314610156578063081812fc14610174578063095ea7b3146101a4575b600080fd5b610140600480360381019061013b9190611e7f565b6103a6565b60405161014d9190611ec7565b60405180910390f35b61015e6103b8565b60405161016b9190611f72565b60405180910390f35b61018e60048036038101906101899190611fca565b61044a565b60405161019b9190612038565b60405180910390f35b6101be60048036038101906101b9919061207f565b610466565b005b6101da60048036038101906101d591906120bf565b61047c565b005b6101f660048036038101906101f191906120bf565b61057e565b005b610212600480360381019061020d9190611fca565b61059e565b005b61022e60048036038101906102299190611fca565b610664565b60405161023b9190612038565b60405180910390f35b61025e60048036038101906102599190612112565b610676565b60405161026b919061214e565b60405180910390f35b61027c610730565b005b610286610744565b6040516102939190612038565b60405180910390f35b6102b660048036038101906102b1919061207f565b61076e565b005b6102c061084e565b6040516102cd9190611f72565b60405180910390f35b6102f060048036038101906102eb9190612195565b6108e0565b005b61030c6004803603810190610307919061230a565b6108f6565b005b61032860048036038101906103239190611fca565b610913565b6040516103359190611f72565b60405180910390f35b6103586004803603810190610353919061242e565b610925565b005b610374600480360381019061036f919061249d565b610995565b6040516103819190611ec7565b60405180910390f35b6103a4600480360381019061039f9190612112565b610a29565b005b60006103b182610a3d565b9050919050565b6060600080546103c79061250c565b80601f01602080910402602001604051908101604052809291908181526020018280546103f39061250c565b80156104405780601f1061041557610100808354040283529160200191610440565b820191906000526020600020905b81548152906001019060200180831161042357829003601f168201915b5050505050905090565b600061045582610a9e565b5061045f82610b26565b9050919050565b6104788282610473610b63565b610b6b565b5050565b600073ffffffffffffffffffffffffffffffffffffffff168273ffffffffffffffffffffffffffffffffffffffff16036104ee5760006040517f64a0ae920000000000000000000000000000000000000000000000000000000081526004016104e59190612038565b60405180910390fd5b600061050283836104fd610b63565b610b7d565b90508373ffffffffffffffffffffffffffffffffffffffff168173ffffffffffffffffffffffffffffffffffffffff1614610578578382826040517f64283d7b00000000000000000000000000000000000000000000000000000000815260040161056f9392919061253d565b60405180910390fd5b50505050565b610599838383604051806020016040528060008152506108f6565b505050565b3373ffffffffffffffffffffffffffffffffffffffff166105be82610664565b73ffffffffffffffffffffffffffffffffffffffff1614610614576040517f08c379a000000000000000000000000000000000000000000000000000000000815260040161060b906125c0565b60405180910390fd5b61061d81610d97565b803373ffffffffffffffffffffffffffffffffffffffff167f696de425f79f4a40bc6d2122ca50507f0efbeabbff86a84871b7196ab8ea8df760405160405180910390a350565b600061066f82610a9e565b9050919050565b60008073ffffffffffffffffffffffffffffffffffffffff168273ffffffffffffffffffffffffffffffffffffffff16036106e95760006040517f89c62b640000000000000000000000000000000000000000000000000000000081526004016106e09190612038565b60405180910390fd5b600360008373ffffffffffffffffffffffffffffffffffffffff1673ffffffffffffffffffffffffffffffffffffffff168152602001908152602001600020549050919050565b610738610e1d565b6107426000610ea4565b565b6000600760009054906101000a900473ffffffffffffffffffffffffffffffffffffffff16905090565b3373ffffffffffffffffffffffffffffffffffffffff1661078e82610664565b73ffffffffffffffffffffffffffffffffffffffff16146107e4576040517f08c379a00000000000000000000000000000000000000000000000000000000081526004016107db9061262c565b60405180910390fd5b6107ef338383610f6a565b808273ffffffffffffffffffffffffffffffffffffffff163373ffffffffffffffffffffffffffffffffffffffff167fd1ba4ac2e2a11b5101f6cb4d978f514a155b421e8ec396d2d9abaf0bb02917ee60405160405180910390a45050565b60606001805461085d9061250c565b80601f01602080910402602001604051908101604052809291908181526020018280546108899061250c565b80156108d65780601f106108ab576101008083540402835291602001916108d6565b820191906000526020600020905b8154815290600101906020018083116108b957829003601f168201915b5050505050905090565b6108f26108eb610b63565b83836110d7565b5050565b61090184848461047c565b61090d84848484611246565b50505050565b606061091e826113fd565b9050919050565b61092d610e1d565b6109378383611510565b610941828261152e565b818373ffffffffffffffffffffffffffffffffffffffff167fe7cd4ce7f2a465edc730269a1305e8a48bad821e8fb7e152ec413829c01a53c4836040516109889190611f72565b60405180910390a3505050565b6000600560008473ffffffffffffffffffffffffffffffffffffffff1673ffffffffffffffffffffffffffffffffffffffff16815260200190815260200160002060008373ffffffffffffffffffffffffffffffffffffffff1673ffffffffffffffffffffffffffffffffffffffff16815260200190815260200160002060009054906101000a900460ff16905092915050565b610a31610e1d565b610a3a81610ea4565b50565b6000634906490660e01b7bffffffffffffffffffffffffffffffffffffffffffffffffffffffff1916827bffffffffffffffffffffffffffffffffffffffffffffffffffffffff19161480610a975750610a968261158a565b5b9050919050565b600080610aaa8361166c565b9050600073ffffffffffffffffffffffffffffffffffffffff168173ffffffffffffffffffffffffffffffffffffffff1603610b1d57826040517f7e273289000000000000000000000000000000000000000000000000000000008152600401610b14919061214e565b60405180910390fd5b80915050919050565b60006004600083815260200190815260200160002060009054906101000a900473ffffffffffffffffffffffffffffffffffffffff169050919050565b600033905090565b610b7883838360016116a9565b505050565b600080610b898461166c565b9050600073ffffffffffffffffffffffffffffffffffffffff168373ffffffffffffffffffffffffffffffffffffffff1614610bcb57610bca81848661186e565b5b600073ffffffffffffffffffffffffffffffffffffffff168173ffffffffffffffffffffffffffffffffffffffff1614610c5c57610c0d6000856000806116a9565b6001600360008373ffffffffffffffffffffffffffffffffffffffff1673ffffffffffffffffffffffffffffffffffffffff168152602001908152602001600020600082825403925050819055505b600073ffffffffffffffffffffffffffffffffffffffff168573ffffffffffffffffffffffffffffffffffffffff1614610cdf576001600360008773ffffffffffffffffffffffffffffffffffffffff1673ffffffffffffffffffffffffffffffffffffffff168152602001908152602001600020600082825401925050819055505b846002600086815260200190815260200160002060006101000a81548173ffffffffffffffffffffffffffffffffffffffff021916908373ffffffffffffffffffffffffffffffffffffffff160217905550838573ffffffffffffffffffffffffffffffffffffffff168273ffffffffffffffffffffffffffffffffffffffff167fddf252ad1be2c89b69c2b068fc378daa952ba7f163c4a11628f55a4df523b3ef60405160405180910390a4809150509392505050565b6000610da66000836000610b7d565b9050600073ffffffffffffffffffffffffffffffffffffffff168173ffffffffffffffffffffffffffffffffffffffff1603610e1957816040517f7e273289000000000000000000000000000000000000000000000000000000008152600401610e10919061214e565b60405180910390fd5b5050565b610e25610b63565b73ffffffffffffffffffffffffffffffffffffffff16610e43610744565b73ffffffffffffffffffffffffffffffffffffffff1614610ea257610e66610b63565b6040517f118cdaa7000000000000000000000000000000000000000000000000000000008152600401610e999190612038565b60405180910390fd5b565b6000600760009054906101000a900473ffffffffffffffffffffffffffffffffffffffff16905081600760006101000a81548173ffffffffffffffffffffffffffffffffffffffff021916908373ffffffffffffffffffffffffffffffffffffffff1602179055508173ffffffffffffffffffffffffffffffffffffffff168173ffffffffffffffffffffffffffffffffffffffff167f8be0079c531659141344cd1fd0a4f28419497f9722a3daafe3b4186f6b6457e060405160405180910390a35050565b600073ffffffffffffffffffffffffffffffffffffffff168273ffffffffffffffffffffffffffffffffffffffff1603610fdc5760006040517f64a0ae92000000000000000000000000000000000000000000000000000000008152600401610fd39190612038565b60405180910390fd5b6000610fea83836000610b7d565b9050600073ffffffffffffffffffffffffffffffffffffffff168173ffffffffffffffffffffffffffffffffffffffff160361105d57816040517f7e273289000000000000000000000000000000000000000000000000000000008152600401611054919061214e565b60405180910390fd5b8373ffffffffffffffffffffffffffffffffffffffff168173ffffffffffffffffffffffffffffffffffffffff16146110d1578382826040517f64283d7b0000000000000000000000000000000000000000000000000000000081526004016110c89392919061253d565b60405180910390fd5b50505050565b600073ffffffffffffffffffffffffffffffffffffffff168273ffffffffffffffffffffffffffffffffffffffff160361114857816040517f5b08ba1800000000000000000000000000000000000000000000000000000000815260040161113f9190612038565b60405180910390fd5b80600560008573ffffffffffffffffffffffffffffffffffffffff1673ffffffffffffffffffffffffffffffffffffffff16815260200190815260200160002060008473ffffffffffffffffffffffffffffffffffffffff1673ffffffffffffffffffffffffffffffffffffffff16815260200190815260200160002060006101000a81548160ff0219169083151502179055508173ffffffffffffffffffffffffffffffffffffffff168373ffffffffffffffffffffffffffffffffffffffff167f17307eab39ab6107e8899845ad3d59bd9653f200f220920489ca2b5937696c31836040516112399190611ec7565b60405180910390a3505050565b60008373ffffffffffffffffffffffffffffffffffffffff163b11156113f7578273ffffffffffffffffffffffffffffffffffffffff1663150b7a0261128a610b63565b8685856040518563ffffffff1660e01b81526004016112ac94939291906126a1565b6020604051808303816000875af19250505080156112e857506040513d601f19601f820116820180604052508101906112e59190612702565b60015b61136c573d8060008114611318576040519150601f19603f3d011682016040523d82523d6000602084013e61131d565b606091505b50600081510361136457836040517f64a0ae9200000000000000000000000000000000000000000000000000000000815260040161135b9190612038565b60405180910390fd5b805181602001fd5b63150b7a0260e01b7bffffffffffffffffffffffffffffffffffffffffffffffffffffffff1916817bffffffffffffffffffffffffffffffffffffffffffffffffffffffff1916146113f557836040517f64a0ae920000000000000000000000000000000000000000000000000000000081526004016113ec9190612038565b60405180910390fd5b505b50505050565b606061140882610a9e565b5060006006600084815260200190815260200160002080546114299061250c565b80601f01602080910402602001604051908101604052809291908181526020018280546114559061250c565b80156114a25780601f10611477576101008083540402835291602001916114a2565b820191906000526020600020905b81548152906001019060200180831161148557829003601f168201915b5050505050905060006114b3611932565b905060008151036114c857819250505061150b565b6000825111156114fd5780826040516020016114e592919061276b565b6040516020818303038152906040529250505061150b565b61150684611949565b925050505b919050565b61152a8282604051806020016040528060008152506119b2565b5050565b8060066000848152602001908152602001600020908161154e919061293b565b507ff8e1a15aba9398e019f0b49df1a4fde98ee17ae345cb5f6b5e2c27f5033e8ce78260405161157e919061214e565b60405180910390a15050565b60007f80ac58cd000000000000000000000000000000000000000000000000000000007bffffffffffffffffffffffffffffffffffffffffffffffffffffffff1916827bffffffffffffffffffffffffffffffffffffffffffffffffffffffff1916148061165557507f5b5e139f000000000000000000000000000000000000000000000000000000007bffffffffffffffffffffffffffffffffffffffffffffffffffffffff1916827bffffffffffffffffffffffffffffffffffffffffffffffffffffffff1916145b806116655750611664826119ce565b5b9050919050565b60006002600083815260200190815260200160002060009054906101000a900473ffffffffffffffffffffffffffffffffffffffff169050919050565b80806116e25750600073ffffffffffffffffffffffffffffffffffffffff168273ffffffffffffffffffffffffffffffffffffffff1614155b156118165760006116f284610a9e565b9050600073ffffffffffffffffffffffffffffffffffffffff168373ffffffffffffffffffffffffffffffffffffffff161415801561175d57508273ffffffffffffffffffffffffffffffffffffffff168173ffffffffffffffffffffffffffffffffffffffff1614155b8015611770575061176e8184610995565b155b156117b257826040517fa9fbf51f0000000000000000000000000000000000000000000000000000000081526004016117a99190612038565b60405180910390fd5b811561181457838573ffffffffffffffffffffffffffffffffffffffff168273ffffffffffffffffffffffffffffffffffffffff167f8c5be1e5ebec7d5bd14f71427d1e84f3dd0314c0f7b2291e5b200ac8c7c3b92560405160405180910390a45b505b836004600085815260200190815260200160002060006101000a81548173ffffffffffffffffffffffffffffffffffffffff021916908373ffffffffffffffffffffffffffffffffffffffff16021790555050505050565b611879838383611a38565b61192d57600073ffffffffffffffffffffffffffffffffffffffff168373ffffffffffffffffffffffffffffffffffffffff16036118ee57806040517f7e2732890000000000000000000000000000000000000000000000000000000081526004016118e5919061214e565b60405180910390fd5b81816040517f177e802f000000000000000000000000000000000000000000000000000000008152600401611924929190612a0d565b60405180910390fd5b505050565b606060405180602001604052806000815250905090565b606061195482610a9e565b50600061195f611932565b9050600081511161197f57604051806020016040528060008152506119aa565b8061198984611af9565b60405160200161199a92919061276b565b6040516020818303038152906040525b915050919050565b6119bc8383611bc7565b6119c96000848484611246565b505050565b60007f01ffc9a7000000000000000000000000000000000000000000000000000000007bffffffffffffffffffffffffffffffffffffffffffffffffffffffff1916827bffffffffffffffffffffffffffffffffffffffffffffffffffffffff1916149050919050565b60008073ffffffffffffffffffffffffffffffffffffffff168373ffffffffffffffffffffffffffffffffffffffff1614158015611af057508273ffffffffffffffffffffffffffffffffffffffff168473ffffffffffffffffffffffffffffffffffffffff161480611ab15750611ab08484610995565b5b80611aef57508273ffffffffffffffffffffffffffffffffffffffff16611ad783610b26565b73ffffffffffffffffffffffffffffffffffffffff16145b5b90509392505050565b606060006001611b0884611cc0565b01905060008167ffffffffffffffff811115611b2757611b266121df565b5b6040519080825280601f01601f191660200182016040528015611b595781602001600182028036833780820191505090505b509050600082602001820190505b600115611bbc578080600190039150507f3031323334353637383961626364656600000000000000000000000000000000600a86061a8153600a8581611bb057611baf612a36565b5b04945060008503611b67575b819350505050919050565b600073ffffffffffffffffffffffffffffffffffffffff168273ffffffffffffffffffffffffffffffffffffffff1603611c395760006040517f64a0ae92000000000000000000000000000000000000000000000000000000008152600401611c309190612038565b60405180910390fd5b6000611c4783836000610b7d565b9050600073ffffffffffffffffffffffffffffffffffffffff168173ffffffffffffffffffffffffffffffffffffffff1614611cbb5760006040517f73c6ac6e000000000000000000000000000000000000000000000000000000008152600401611cb29190612038565b60405180910390fd5b505050565b600080600090507a184f03e93ff9f4daa797ed6e38ed64bf6a1f0100000000000000008310611d1e577a184f03e93ff9f4daa797ed6e38ed64bf6a1f0100000000000000008381611d1457611d13612a36565b5b0492506040810190505b6d04ee2d6d415b85acef81000000008310611d5b576d04ee2d6d415b85acef81000000008381611d5157611d50612a36565b5b0492506020810190505b662386f26fc100008310611d8a57662386f26fc100008381611d8057611d7f612a36565b5b0492506010810190505b6305f5e1008310611db3576305f5e1008381611da957611da8612a36565b5b0492506008810190505b6127108310611dd8576127108381611dce57611dcd612a36565b5b0492506004810190505b60648310611dfb5760648381611df157611df0612a36565b5b0492506002810190505b600a8310611e0a576001810190505b80915050919050565b6000604051905090565b600080fd5b600080fd5b60007fffffffff0000000000000000000000000000000000000000000000000000000082169050919050565b611e5c81611e27565b8114611e6757600080fd5b50565b600081359050611e7981611e53565b92915050565b600060208284031215611e9557611e94611e1d565b5b6000611ea384828501611e6a565b91505092915050565b60008115159050919050565b611ec181611eac565b82525050565b6000602082019050611edc6000830184611eb8565b92915050565b600081519050919050565b600082825260208201905092915050565b60005b83811015611f1c578082015181840152602081019050611f01565b60008484015250505050565b6000601f19601f8301169050919050565b6000611f4482611ee2565b611f4e8185611eed565b9350611f5e818560208601611efe565b611f6781611f28565b840191505092915050565b60006020820190508181036000830152611f8c8184611f39565b905092915050565b6000819050919050565b611fa781611f94565b8114611fb257600080fd5b50565b600081359050611fc481611f9e565b92915050565b600060208284031215611fe057611fdf611e1d565b5b6000611fee84828501611fb5565b91505092915050565b600073ffffffffffffffffffffffffffffffffffffffff82169050919050565b600061202282611ff7565b9050919050565b61203281612017565b82525050565b600060208201905061204d6000830184612029565b92915050565b61205c81612017565b811461206757600080fd5b50565b60008135905061207981612053565b92915050565b6000806040838503121561209657612095611e1d565b5b60006120a48582860161206a565b92505060206120b585828601611fb5565b9150509250929050565b6000806000606084860312156120d8576120d7611e1d565b5b60006120e68682870161206a565b93505060206120f78682870161206a565b925050604061210886828701611fb5565b9150509250925092565b60006020828403121561212857612127611e1d565b5b60006121368482850161206a565b91505092915050565b61214881611f94565b82525050565b6000602082019050612163600083018461213f565b92915050565b61217281611eac565b811461217d57600080fd5b50565b60008135905061218f81612169565b92915050565b600080604083850312156121ac576121ab611e1d565b5b60006121ba8582860161206a565b92505060206121cb85828601612180565b9150509250929050565b600080fd5b600080fd5b7f4e487b7100000000000000000000000000000000000000000000000000000000600052604160045260246000fd5b61221782611f28565b810181811067ffffffffffffffff82111715612236576122356121df565b5b80604052505050565b6000612249611e13565b9050612255828261220e565b919050565b600067ffffffffffffffff821115612275576122746121df565b5b61227e82611f28565b9050602081019050919050565b82818337600083830152505050565b60006122ad6122a88461225a565b61223f565b9050828152602081018484840111156122c9576122c86121da565b5b6122d484828561228b565b509392505050565b600082601f8301126122f1576122f06121d5565b5b813561230184826020860161229a565b91505092915050565b6000806000806080858703121561232457612323611e1d565b5b60006123328782880161206a565b94505060206123438782880161206a565b935050604061235487828801611fb5565b925050606085013567ffffffffffffffff81111561237557612374611e22565b5b612381878288016122dc565b91505092959194509250565b600067ffffffffffffffff8211156123a8576123a76121df565b5b6123b182611f28565b9050602081019050919050565b60006123d16123cc8461238d565b61223f565b9050828152602081018484840111156123ed576123ec6121da565b5b6123f884828561228b565b509392505050565b600082601f830112612415576124146121d5565b5b81356124258482602086016123be565b91505092915050565b60008060006060848603121561244757612446611e1d565b5b60006124558682870161206a565b935050602061246686828701611fb5565b925050604084013567ffffffffffffffff81111561248757612486611e22565b5b61249386828701612400565b9150509250925092565b600080604083850312156124b4576124b3611e1d565b5b60006124c28582860161206a565b92505060206124d38582860161206a565b9150509250929050565b7f4e487b7100000000000000000000000000000000000000000000000000000000600052602260045260246000fd5b6000600282049050600182168061252457607f821691505b602082108103612537576125366124dd565b5b50919050565b60006060820190506125526000830186612029565b61255f602083018561213f565b61256c6040830184612029565b949350505050565b7f596f7520617265206e6f7420746865206f776e65720000000000000000000000600082015250565b60006125aa601583611eed565b91506125b582612574565b602082019050919050565b600060208201905081810360008301526125d98161259d565b9050919050565b7f596f7520617265206e6f7420746865206f776e6572206e667400000000000000600082015250565b6000612616601983611eed565b9150612621826125e0565b602082019050919050565b6000602082019050818103600083015261264581612609565b9050919050565b600081519050919050565b600082825260208201905092915050565b60006126738261264c565b61267d8185612657565b935061268d818560208601611efe565b61269681611f28565b840191505092915050565b60006080820190506126b66000830187612029565b6126c36020830186612029565b6126d0604083018561213f565b81810360608301526126e28184612668565b905095945050505050565b6000815190506126fc81611e53565b92915050565b60006020828403121561271857612717611e1d565b5b6000612726848285016126ed565b91505092915050565b600081905092915050565b600061274582611ee2565b61274f818561272f565b935061275f818560208601611efe565b80840191505092915050565b6000612777828561273a565b9150612783828461273a565b91508190509392505050565b60008190508160005260206000209050919050565b60006020601f8301049050919050565b600082821b905092915050565b6000600883026127f17fffffffffffffffffffffffffffffffffffffffffffffffffffffffffffffffff826127b4565b6127fb86836127b4565b95508019841693508086168417925050509392505050565b6000819050919050565b600061283861283361282e84611f94565b612813565b611f94565b9050919050565b6000819050919050565b6128528361281d565b61286661285e8261283f565b8484546127c1565b825550505050565b600090565b61287b61286e565b612886818484612849565b505050565b5b818110156128aa5761289f600082612873565b60018101905061288c565b5050565b601f8211156128ef576128c08161278f565b6128c9846127a4565b810160208510156128d8578190505b6128ec6128e4856127a4565b83018261288b565b50505b505050565b600082821c905092915050565b6000612912600019846008026128f4565b1980831691505092915050565b600061292b8383612901565b9150826002028217905092915050565b61294482611ee2565b67ffffffffffffffff81111561295d5761295c6121df565b5b612967825461250c565b6129728282856128ae565b600060209050601f8311600181146129a55760008415612993578287015190505b61299d858261291f565b865550612a05565b601f1984166129b38661278f565b60005b828110156129db578489015182556001820191506020850194506020810190506129b6565b868310156129f857848901516129f4601f891682612901565b8355505b6001600288020188555050505b505050505050565b6000604082019050612a226000830185612029565b612a2f602083018461213f565b9392505050565b7f4e487b7100000000000000000000000000000000000000000000000000000000600052601260045260246000fdfea26469706673582212205c415785d505a6e270d65f60e516fae9df5280afe688749513a9ec7008260a6764736f6c63430008140033",
  "linkReferences": {},
  "deployedLinkReferences": {}
}